:020000040001F9
:10E00000DFF80CD0E2F018F90048004759EC0100A5
:10E01000E818002004207146084202D0EFF309807E
:10E0200001E0EFF308807146004A1047A9E40100BF
:10E0300014484FF0590101604FF0160101604FF094
:10E04000880101601048416841F4804141600F48F7
:10E05000416841F002014160416841F004014160C2
:10E060000B48804707484FF000010160094800470E
:10E07000FEE7FEE7FEE7FEE7FEE7FEE7FEE7FEE778
:10E08000FEE7FEE700010040000200400070004093
:10E0900085E5010001E001002DE9F05F0546002063
:10E0A00092469B4688460646814640241BE0284609
:10E0B00041464746224600F032F853465A46C01AB7
:10E0C000914110D3114618462246E2F0A5F82D1AC8
:10E0D00067EB01084F46224601200021E2F09CF840
:10E0E00017EB00094E41201EA4F10104DFDC484675
:10E0F00031462A464346BDE8F09F40EA01039B07AC
:10E1000003D009E008C9121F08C0042AFAD203E0AC
:10E1100011F8013B00F8013B521EF9D27047202A4A
:10E1200004DB203A21FA02F00021704721FA02F3C1
:10E13000D040C2F1200291400843194670470000C8
:10E1400010B500F0FBF90148006810BD0000002088
:10E150004FF08040D0F80002800702D54FF4004015
:10E16000704700207047000008B510A10020096822
:10E1700000914FF08041D1F8401211F4A02F13D13B
:10E180000B488A0310D4C1F30800C1F38132094B54
:10E19000801C1DF80220C1F344215843491C11FB87
:10E1A00002F1B0FBF1F0C00008BD00000102020462
:10E1B000001BB700C0C62D00F0B510F47F3F2ED075
:10E1C0004FF08043D3F8F431DFF878C0DFB21D4B55
:10E1D000C0F381440C3B6FEA90450CF1040603EB5D
:10E1E0008403012F02D0022C0DD001E0022C02D0BA
:10E1F000AC070AD00AE0C343DC06134B06D000F09C
:10E200001F041D2C02D0634600E033461C68C0F397
:10E210008725C0F34416B540AC4314431C60420E3E
:10E2200052070ED0084BC0F30172183B03EB820279
:10E230001368C0F34264C0F304508440A3430B430B
:10E240001360F0BD2C0200402802004010B5064CBF
:10E25000A2600843184340F001002060206840F0AD
:10E260000200206010BD00000010034010B51E48E1
:10E27000E2F006FB1D4C4FF4E131204600F006FAB7
:10E280001421204600F08EFAA06820F01000A06053
:10E29000A06840F02000A060606840F611010843CB
:10E2A00060602520E2F0DCF8FFF74AFF014610A08D
:10E2B000E2F0D0FBE1F0E0FF014618A0E2F0CAFB7B
:10E2C000FFF746FF014620A0E2F0C4FBE1F0DEFFCD
:10E2D000014628A0E2F0BEFBE2F00AF80146BDE8E4
:10E2E00010402FA0E2F0B6BB110000040010074060
:10E2F0001B5B313B33366D5B4C44524F4D5D0D0A19
:10E30000434C4B5F47657443505546726571203AE4
:10E31000202538640D0A1B5B306D00001B5B313B10
:10E3200033366D5B4C44524F4D5D434C4B5F4765FC
:10E330007448585446726571203A202538640D0A95
:10E340001B5B306D000000001B5B313B33366D5BA7
:10E350004C44524F4D5D434C4B5F4765744C585491
:10E3600046726571203A202538640D0A1B5B306DBA
:10E37000000000001B5B313B33366D5B4C44524F59
:10E380004D5D434C4B5F47657450434C4B30467278
:10E390006571203A202538640D0A1B5B306D000042
:10E3A0001B5B313B33366D5B4C44524F4D5D434CF0
:10E3B0004B5F47657450434C4B3146726571203A50
:10E3C000202538640D0A1B5B306D000070B54FF4DA
:10E3D00080252E11154C25E02A46914201D3830356
:10E3E0001AD03246914201D3830417D022234FF42E
:10E3F0008052E360606001232361BFF36F8F236964
:10E40000DB07FCD123685B060AD5206840F040009A
:10E4100020604FF0FF3070BD2323EAE72523E8E7B3
:10E420001044891A0029D7D1002070BD00C00040D7
:10E430000023021D01462220AFF30080F0B5124CEC
:10E4400001261AE0E0606160212801D11D68A56005
:10E450002661BFF36F8F2569ED07FCD125686F0634
:10E4600003D525604FF0FF30F0BD10B1222808D051
:10E4700001E0A5681D60091D1B1D9142E2D300202B
:10E48000F0BD01F58051F7E700C0004005490022CA
:10E49000CA604860012008610869C007FCD188682B
:10E4A0007047000000C00040044603A0E2F0D2FA2A
:10E4B0002046E2F0F1FBFEE7496E204861726420DD
:10E4C0004661756C742048616E646C65720A000068
:10E4D00010B5E2F033F90348C16B41F00401C163A8
:10E4E00010BD00000010044013460A4601460020FB
:10E4F000FFF7A4BF4FF0804040687047592110B526
:10E50000880716228823C0F80011C0F80021C0F83F
:10E510000031D0F80041002CF5D010BD06498A69C1
:10E520001202FCD40A2804D10D220A608A69120260
:10E53000FCD40860704700000010074010B5FFF7DA
:10E5400013FE0E4A4FF080439060D3F8101201F092
:10E550000701022903D002F10C0050F82100D3F882
:10E56000201201F00F01491CB0FBF1F004491060CA
:10E5700008444900B0FBF1F0506010BD00000020DD
:10E5800020A107001A48016841F470010160194890
:10E59000C16C21F00F0141F00801C1644FF08040CF
:10E5A000D0F8981241F48021C0F89812D0F80812DF
:10E5B00041F00201C0F808120F49D1F8042102F01D
:10E5C000F732C1F80421D1F8082102F0F732C1F87E
:10E5D0000821D0F8081221F00201C0F808124FF00B
:10E5E0004020D0F8401121F0F001C0F840117047F0
:10E5F00088ED00E000C000400010044010B5074C5A
:10E600000122D106204600F00BF8216841F00051AC
:10E610002160BDE810402120E1F022BF000105404B
:10E6200070B516460D460446E2F036F90023B6EB07
:10E63000500F01D9022206E0B0FBF6F2130E02D011
:10E64000591CB2FBF1F21D43256062605B1C5A430A
:10E65000B0FBF2F070BD000010B50B4CE06910F497
:10E66000885F02D104E0E2F0A9F9A1694904FAD572
:10E67000A169204611F0710F05D0BDE810404FF49C
:10E680001051E2F07DB910BD001007402DE9FF41A7
:10E6900004463C480F4600250FC88DE80F003A4954
:10E6A0002E464FF080408C4206D1D0F81412D0F89C
:10E6B0002002C1F301652AE034498C4206D1D0F82A
:10E6C0001412D0F82002C1F381652BE030498C424E
:10E6D00008D1D0F81C12D0F83002C1F3016500F067
:10E6E0000F0621E02B498C4208D1D0F81C12D0F83B
:10E6F0003002C1F38165C0F3031615E026498C4250
:10E7000008D1D0F81C12D0F83002C1F30175C0F363
:10E71000032609E021498C4206D1D0F81C12D0F81A
:10E7200030028D0FC0F30336002020630320E06029
:10E73000A0681B490840A060E846012D02D1FFF700
:10E7400013FD0190002F1AD058F82510761CB1FB4C
:10E75000F6F000EB5700B0FBF7F0801EB0F5803FFD
:10E760000AD3B1FBF6F000EBC700B0FBF7F06FF097
:10E77000010101EB101001E040F040506062BDE883
:10E78000FF81000080EE01000000074000100740FC
:10E79000002007400030074000400740005007407D
:10E7A0000FFFF0FF026A22F0FF020A430262416893
:10E7B00041F400614160704702E008C8121F08C1BF
:10E7C000002AFAD170477047002001E001C1121FF2
:10E7D000002AFBD1704700002DE9FF4F8DB00F4696
:10E7E0000546002606E025280BD0DDE90F129047EC
:10E7F0006D1C761C28780028F5D111B03046BDE894
:10E80000F08F0024A246A1460122EC4900E0044317
:10E8100015F8013F203B02FA03F00842F7D12878AF
:10E820002A2810D06FF02F022878A0F13001092992
:10E8300014D80AEB8A0102EB410144F0020400EB18
:10E84000010A6D1CF0E701CF5FEA000A03D544F42A
:10E850000054CAF1000A44F002046D1C28782E28E6
:10E8600017D115F8010F44F004042A280ED06FF0D8
:10E870002F022878A0F1300109290AD809EB890173
:10E8800002EB410100EB01096D1CF2E757F8049B14
:10E890006D1C28786C280FD006DC4C2817D068280F
:10E8A0000DD06A2814D104E0742810D07A280FD132
:10E8B0000DE044F400140AE044F4801401E044F450
:10E8C00040146978814202D104F580146D1C6D1CDE
:10E8D0002A786E2A1FD00CDC632A31D004DC002A8F
:10E8E0008BD0582A11D1A3E0642A68D0692A0CD1B0
:10E8F00065E0732A2ED004DC6F2A73D0702A04D10D
:10E900009BE0752A6FD0782A6ED01046DDE90F1291
:10E910009047761C50E1C4F30250022806D0032829
:10E9200009D0042801CF09D0066045E101CFF117D5
:10E93000C0E9006140E101CF06803DE106703BE1A6
:10E9400017F8040B8DF8000000208DF80100EB464D
:10E95000012003E057F804BB4FF0FF3061074FF090
:10E96000000102D40DE008F10101884649450FDAA3
:10E970008045F8DB1BF808100029F4D108E008F105
:10E98000010188468142FADB1BF808100029F6D104
:10E99000DDE90F23AAEB080081462146E2F06AF880
:10E9A000304400EB080604E0DDE90F121BF8010B10
:10E9B0009047B8F10108F7D221464846F7E00A210E
:10E9C000C4F302534FF0000B0891022B04D001CF87
:10E9D000C117032B09D00AE0FF1D27F00707F7E84E
:10E9E000020108E032E01FE020E000B2C117042B72
:10E9F00001D140B2C117031E71F1000307DA4FF0D5
:10EA0000000CD0EB0C006CEB01012D2302E0230580
:10EA100004D52B238DF82430012303E0E30701D034
:10EA20002023F7E7984658E00A2110E010210EE075
:10EA300010204FF0000B08900CE010214FF0000B5D
:10EA400044F004044FF00809089103E008214FF056
:10EA5000000B0891C4F30253022B04D001CF002114
:10EA6000032B06D006E0FF1D27F00707F7E8020199
:10EA700003E080B2042B00D1C0B24FF0000823079E
:10EA80002BD5702A07D0DDF820C08CF0100C5CEA82
:10EA90000B0C05D00EE040238DF82430012308E054
:10EAA00050EA010306D030238DF824308DF825205C
:10EAB00002239846DDF820C08CF0080C5CEA0B0CB1
:10EAC0000BD150EA010301D1630706D530238DF83D
:10EAD00024304FF00108A9F10109582A04D038A2C6
:10EAE0000B9208AA0A920BE03AA2F9E75B46089A51
:10EAF000FFF7D2FA0B9B9B5C0A9A521E0A92137084
:10EB000050EA0102F2D10A98ADEB000000F1200BAF
:10EB1000600702D524F4803401E04FF00109D945A3
:10EB200002DDA9EB0B0000E0002000EB0B014144EB
:10EB30000890AAEB010AE00306D4DDE90F23214681
:10EB40005046E1F097FF06444FF0000908E009A99C
:10EB500011F80900DDE90F12904709F10109761C4F
:10EB6000C145F4DBE0030CD5DDE90F232146504617
:10EB7000E1F080FF064404E0DDE90F123020904709
:10EB8000761C0899481E08900029F5DC08E00A98D0
:10EB90000A990078491C0A91DDE90F129047761C0A
:10EBA000BBF10001ABF1010BF1DC21465046DDE980
:10EBB0000F2300F019F806446D1C1BE6092801001C
:10EBC00030313233343536373839616263646566E3
:10EBD00000000000303132333435363738394142A5
:10EBE00043444546000000002DE9F041044600255D
:10EBF0001E461746880404D405E039462020B04755
:10EC00006D1C641EF9D52846BDE8F0817CB50C4624
:10EC100005464FF030614FF000534FF0FF3288014E
:10EC2000FFF714FB0095084D009806E0FFF72EFC57
:10EC3000019068600098001D0090A042F6D3BDE8E6
:10EC40007C40E1F089BB00000010034010B5044691
:10EC5000FFF764FC204610BDFFF750FCE1F088FD93
:10EC6000FFF704FBE1F0D8FBFFF7C8FC4FF080464C
:10EC7000D6F8040240F00400C6F80402E1F092FB6A
:10EC8000334D286840F00800286032494FF4F030D6
:10EC9000086031493148E1F093FBE1F003FF304C6B
:10ECA000C0B130A0E1F0D6FE38A0E1F0D3FE434879
:10ECB000016841F080410160DFF80481414FDFF8D5
:10ECC0000891424D00263878042820D2287801285F
:10ECD0001DD022E0E2F034F8A8B13DA0E1F0BAFE88
:10ECE000A069C000FCD500202E21E96068600120E9
:10ECF000286128690028FCD1286820F002002860DB
:10ED00000220B060FEE717A0E1F0A4FED4E7D8F837
:10ED10000000AE2810D02E703E70D9F800000528F3
:10ED2000D1D936A0E1F096FEA069C000FCD5FFF76E
:10ED3000E5FBE1F09DFDC6E728780128FCD12E70A7
:10ED400040211F48E1F098FBE1F0E8FCF4E7000007
:10ED500000C0004050000020580000205400002057
:10ED6000001007401B5B313B33366D5B4C44524F08
:10ED70004D5D5374617920696E20424F4F544C4F62
:10ED8000414445520D0A1B5B306D00001B5B313B5B
:10ED900033366D5B4C44524F4D5D54696D652D6F3C
:10EDA000757420636F756E7465722073746172740C
:10EDB0002E2E2E2E0D0A1B5B306D0000000105402B
:10EDC000A41000205D0000202C0000205C0000202A
:10EDD0001B5B313B33366D5B4C44524F4D5D4A7586
:10EDE0006D7020746F203C4150504C494341544950
:10EDF0004F4E3E0D0A1B5B306D0000001B5B313B2C
:10EE000033366D5B4C44524F4D5D54696D652D6FCB
:10EE100075742C20706572666F726D20434849507E
:10EE20005F5253540D0A1B5B306D000010B5FFF7A5
:10EE30004FFB07484AF6651141604168C903FCD59C
:10EE4000006CC4B2214603A0E1F004FE204610BDD0
:10EE5000001004401B5B313B33366D5B4C44524F1A
:10EE60004D5D52656164204D61676963546167203F
:10EE70003C3078253032583E0D0A1B5B306D000067
:10EE8000001BB7000000000000800000001BB7005E
:10EE9000001BB7000000000000800000001BB7004E
:10EEA000001BB7000000000000800000001BB7003E
:020000040010EA
:10000000E818002031E0010071E0010015E0010076
:1000100075E0010077E0010079E0010000000000D8
:100020000000000000000000000000007BE0010074
:100030007DE00100000000007FE0010081E00100A0
:1000400083E0010083E0010083E0010083E0010020
:1000500083E0010083E0010083E0010083E0010010
:1000600083E0010083E0010083E0010083E0010000
:1000700083E0010083E0010083E0010083E00100F0
:1000800083E0010083E0010083E0010083E00100E0
:1000900083E0010083E0010083E0010083E00100D0
:1000A00083E0010083E0010083E0010083E00100C0
:1000B00083E0010083E0010083E0010083E00100B0
:1000C00083E001001109100083E0010083E00100DA
:1000D0003509100059E6010083E0010083E00100CA
:1000E00083E0010083E0010083E0010083E0010080
:1000F00083E0010083E0010083E0010083E0010070
:1001000083E0010083E0010083E0010083E001005F
:1001100083E0010083E0010083E0010083E001004F
:1001200083E0010083E0010083E0010083E001003F
:1001300083E0010083E0010083E0010083E001002F
:1001400083E0010083E0010083E0010083E001001F
:1001500083E0010083E0010083E0010083E001000F
:1001600083E0010083E0010083E0010083E00100FF
:1001700083E0010083E0010083E0010083E00100EF
:1001800083E0010083E0010083E0010083E00100DF
:1001900083E0010083E0010083E0010083E00100CF
:1001A00083E0010083E0010083E0010083E00100BF
:1001B00083E0010083E0010083E0010083E00100AF
:1001C00083E0010083E0010083E0010083E001009F
:1001D00083E0010083E0010083E0010083E001008F
:1001E00083E0010083E0010083E0010083E001007F
:1001F00083E00100D2B201E000F8012B491EFBD2DE
:1002000070470022F6E710B513460A460446194621
:10021000FFF7F0FF204610BD202A04DB203A00FA49
:1002200002F1002070479140C2F1200320FA03F34D
:100230001943904070470000064C074D06E0E06807
:1002400040F0010394E8070098471034AC42F6D31D
:100250001DF7DAFE800E1000A00E100000F01F0245
:1002600001219140034A800F02EB800002680A439B
:1002700002607047040200404FF08040D0F8000256
:10028000C00700D000487047001BB70010B51EF72C
:1002900055F94FF08041D1F834024207134817D086
:1002A000D1F8342202F00702012A13D0D1F8342207
:1002B00002F00702022A10D0D1F8342202F007021D
:1002C000032A0DD0D1F8341201F0070104290AD015
:1002D000006810BD0068400810BD0068800810BDAF
:1002E0000068C00810BD0068000910BD00000020B3
:1002F00010B51EF723F94FF08041D1F8340210F009
:10030000700F144817D0D1F83422C2F30212012A18
:1003100013D0D1F83422C2F30212022A10D0D1F83D
:100320003422C2F30212032A0DD0D1F83412C1F3E1
:10033000021104290AD0006810BD0068400810BDF1
:100340000068800810BD0068C00810BD0068000982
:1003500010BD0000000000200B49086800F040407C
:10036000B0F1004F08D0B0F1404F08D020B1B0F14B
:10037000804F06D000207047C86880B27047C868B8
:100380007047C868C0B2704700100340034610B5FC
:100390000020024603E09C5C521C204480B28A424A
:1003A000F9DB10BD0248016841F0010101607047AE
:1003B00000C000400B46021D014600201EF73EB85B
:1003C000F8B500270C4605460F6069464FF440100B
:1003D000FFF7F0FF00980E4EC00703D0306828608A
:1003E0002760F8BD69460B48FFF7E4FF0098C0F3AB
:1003F000130200923068824201D8110506D00090A5
:10040000286030680099401A2060F8BD1046F7E770
:1004100050000020040030000D480021016303213A
:10042000C1600C4981600C494162016A21F0FF0101
:1004300041F040010162094A202182F80014074A74
:100440001021203AC2F8001140F6110141607047B6
:1004500000000740300003006600003024E000E0A8
:1004600000F01F02012191404009800000F1E020CE
:10047000C0F80011704700002DE9F34F81B0984D8E
:10048000DDE9017657F8084B0020686005F10802A5
:1004900094494FF44010083E00921EF725F8D5F815
:1004A0000890DFF8448209F0020AA42C1DD0002C29
:1004B00021D0FF2C77D04046C8F81840A62C18D081
:1004C0004FF0804BB12C17D0AB2C19D0AC2C17D0DF
:1004D000AD2C15D04FF0010BAE2C2CD0A02C2DD074
:1004E000A32C2BD0CA2C4AD040E03968C8F814108D
:1004F000E1E73220287265E0DBF80000A860DFE069
:10050000BB2000F09FFB79A000F0A4FA814881692C
:10051000C900FCD55923162158468822C0F800315D
:10052000C0F80011C0F80021D0F80041002CF5D02F
:1005300000F09EF9FEE7C8F814B0C1E0016AD8F8EF
:100540002400814200D3014600201DF73FFFA32C69
:100550000AD1D8E909011DF739FF49F00200A86066
:100560000021009800F048FAC8F81CB0A02C1BD05D
:10057000C32C0DD0A12C2DD0FF2C3AD022E0664800
:100580000068800701D5022000E00120A86019E082
:10059000D8F82400C8F80000D8F82810002918D08E
:1005A0001DF714FF03E024E00020C8F8000078687D
:1005B000C8F80800D8F80020083EC8F8042008371A
:1005C000C8F80C00D8F818004446A0283ED0C3282C
:1005D0003CD075E0D8F81C105AEA010070D03846BB
:1005E000009900F009FA40492831081FFFF7E8FE9A
:1005F00066E0D8F80010D8F810004446091AC8F888
:100600000010D8F8082001F47F261044C8F808002C
:10061000B6F5401F54D2324A304640321DF764FFCF
:1006200030461DF705FF2E4A30464032216800F063
:100630000BFA20882169C0F30B00C1F58051884274
:100640003ED306F580501DF7F3FE39E0A068B042B6
:1006500000D20646801BA06020683A46811900F04F
:10066000F3F931463846FFF7CCFD20683A46811948
:100670001DF73AFF2068266130442060A068F8B971
:100680000026D4F80490E76834464FF4805A14E00A
:10069000134A09EB040000F5805140321DF724FF96
:1006A000381B5146884200D201460D484030FFF7C2
:1006B0006DFE304486B204F58054BC42E8D32E81EE
:1006C000DDE90101FFF762FE2880D8F81400401C24
:1006D0006860401CC8F814000020BDE8FE8F0000D0
:1006E0006400002010003000300000201B5B313B14
:1006F00033366D5B4C44524F4D5D506572666F7280
:100700006D20434849505F5253542E2E2E0D0A1B24
:100710005B306D000010074000C000400549064AEC
:1007200000208B691B02FCD4135C0B60401C40282A
:10073000F7D3704700000740640000200848416874
:10074000C901FCD44FF08041D1F8F411C90702D19E
:100750004AF6651242604168C903FCD57047000043
:10076000001004404FF080414A6802434A607047DD
:1007700070B54FF08044D4F8000240F00500C4F892
:100780000002D4F85002C006FBD52F48C4F840023E
:10079000D4F850024007FBD5D4F8100220F007002F
:1007A000801CC4F81002D4F8200220F00F00C4F816
:1007B0002002D4F82002C4F8200225492348284DFD
:1007C0000860244908602449B0FBF1F0234908601F
:1007D0002846FFF743FD00224FF0407128461DF7E1
:1007E000EBFC204D2846FFF739FD00224FF0406119
:1007F00028461DF7E1FC1C4D2846FFF72FFD00227F
:100800004FF4E04128461DF7D7FC184D2846FFF766
:1008100025FD00224FF4807128461DF7CDFC0720EE
:10082000FFF71CFDE06B20F47F00E063E06B40F419
:10083000CC00E063A06B20F47F40A063A06B40F489
:10084000CC40A06370BD00001E42080000B0710BD8
:10085000080000200000002040420F00040000209B
:10086000103D8057913DA0570300C05E010080728B
:100870004FF08040816841F00101816070470000C5
:100880000121044A814002EB106002680A438A4356
:10089000026070470800004010B588B0044620226E
:1008A000174968461DF729FC164A174B90039442D6
:1008B00004D1D0F81402C0F3022110E09C4204D10C
:1008C000D0F81402C0F3023109E01049D0F8140244
:1008D0008C4202D1C0F3024101E0C0F3025102296F
:1008E00003D05DF8210008B010BD944201D09C42B5
:1008F00002D1FFF7CBFCF6E7FFF7FAFCF3E70000C5
:10090000600E100000000540000105400010054089
:1009100006488168C1F30001002905D001218160EA
:1009200003480168491C0160704700000001054050
:100930002C00002070B50F4AD4690F4914F0110F34
:100940000DD00E4D9069400409D44878402806D255
:10095000136848782E18401C48703370F2E74A78C4
:100960000020402A03D0E20600D5487070BD012265
:100970000A70FAE7000007405C000020A410002085
:100980004A0503D570228261082282610A0503D5D7
:10099000426942F0010242618A0401D5064A82613D
:1009A0004A0401D51F224264090404D58021C16193
:1009B00040F20F3181637047010000010448006874
:1009C000C0B27F2802D903A000F044B870470000ED
:1009D000001007401B5B313B33366D5B4C44524F7C
:1009E0004D5D696E76616C696420636F6D6D616EDB
:1009F000640D0A1B5B306D00F0B5114C07460E46C6
:100A0000206840F010002060A50100230D4A29460F
:100A100022201DF713FD3B464FEAB4673A462946AC
:100A200021201DF70BFD2EB133463A462946002002
:100A30001DF704FD206820F010002060F0BD0000CC
:100A400000C000400800300013460A46014621203D
:100A50001DF7F4BC0FB4054B10B503A9044A029866
:100A60001DF7BAFE10BC5DF814FB00004DEC010050
:100A7000600000202DE9F041044600251E46904606
:100A8000C80301D5302700E02027880404D505E0FD
:100A900041463846B0476D1C641EF9D52846BDE86E
:100AA000F081000070B51DF725FD05464FF0804030
:100AB000416840F2FF1211434160294614A0FFF73C
:100AC000C9FF1EF7B3F90446E80715D00120FFF768
:100AD00049FEA52C03D0BB2C09D018A012E00020A1
:100AE00000F0B0F821A0FFF7B5FF012070BD002095
:100AF00000F0A8F82BA005E0A80707D50220FFF713
:100B000031FE32A0FFF7A6FF002070BD3DA0F9E73F
:100B10001B5B313B33366D5B4C44524F4D5D526530
:100B200073657420536F75726365203C307825308F
:100B300038583E0D0A1B5B306D0000001B5B313BDB
:100B400033366D5B4C44524F4D5D456E746572207B
:100B5000424F4F544C4F414445522066726F6D20B6
:100B6000504F520D0A1B5B306D0000001B5B313B88
:100B700033366D5B4C44524F4D5D456E746572204B
:100B8000424F4F544C4F414445522066726F6D2086
:100B90004150504C49434154494F4E0D0A1B5B3064
:100BA0006D0000001B5B313B33366D5B4C44524F94
:100BB0004D5D557067726164652066696E69736822
:100BC00065642E2E2E0D0A1B5B306D001B5B313BC6
:100BD00033366D5B4C44524F4D5D456E74657220EB
:100BE000424F4F544C4F414445522066726F6D2026
:100BF0006E52455345542070696E0D0A1B5B306D73
:100C0000000000001B5B313B33366D5B4C44524FA0
:100C10004D5D456E74657220424F4F544C4F4144B8
:100C200045522066726F6D20756E68616E646C65EA
:100C300020726573657420736F757263650D0A1B8E
:100C40005B306D0010B504461DF742FC064A4AF6BB
:100C5000651050605368DB03FCD514642146BDE881
:100C6000104002A0FFF7F6BE001004401B5B313BB2
:100C700033366D5B4C44524F4D5D5772697465203D
:100C80004D61676963546167203C30782530325884
:100C90003E0D0A1B5B306D0010B50446016810A0C4
:100CA000FFF7D8FE11A06168FFF7D4FE12A0A1687B
:100CB000FFF7D0FE13A0E168FFF7CCFE14A0216976
:100CC000FFF7C8FE15A06169FFF7C4FE16A0A16971
:100CD000FFF7C0FEE169BDE8104016A0FFF7BABEFD
:100CE000723020203D20307825780A007231202093
:100CF0003D20307825780A00723220203D2030785F
:100D000025780A00723320203D20307825780A00AB
:100D1000723132203D20307825780A006C72202014
:100D20003D20307825780A00706320203D203078FF
:100D300025780A00707372203D20307825780A00EB
:100D400070B511A0FFF786FE184D00202968091F15
:100D50001DF75CFF0446014615A0FFF77BFE2868DF
:100D6000001F1DF793FB054601461CA0FFF772FE0E
:100D7000AC4204D124A0FFF76DFE012070BD2DA070
:100D8000FFF768FE002070BD1B5B313B33366D5BA7
:100D90004C44524F4D5D56657269667920436865D3
:100DA000636B73756D0D0A1B5B306D005000002086
:100DB0001B5B313B33366D5B4C44524F4D5D4361A1
:100DC00063756C61746564202E2E2E2E2E3C307857
:100DD000253038583E0D0A1B5B306D001B5B313BE4
:100DE00033366D5B4C44524F4D5D496E204150523D
:100DF0004F4D202E2E2E2E2E2E3C3078253038585A
:100E00003E0D0A1B5B306D001B5B313B33366D5B67
:100E10004C44524F4D5D566572696679202E2E2ED8
:100E20002E2E2E2E2E3C504153533E0D0A1B5B306E
:100E30006D0000001B5B313B33366D5B4C44524F01
:100E40004D5D566572696679202E2E2E2E2E2E2E21
:100E50002E3C4641494C3E0D0A1B5B306D000000A4
:100E6000001BB70000800000000000000000000030
:100E7000000000001027000000000000001BB70069
:100E8000A00E10000000002064000000B8E7010080
:100E9000040F10006400002084180000C8E701005F
:100EA000001BB7000C000000001BB700001BB700C0
:100EB000008000000000000010270000000000007B
:100EC0000000000000000000001BB7000000000050
:100ED0000000000000000000000000000000000012
:100EE0000000000001000000000000000000000001
:100EF00000000000000000000000000000000000F2
:040F000000000000ED
:040000050001E00115
:00000001FF
